{
  "contractName": "Campaign",
  "abi": [
    {
      "inputs": [
        {
          "internalType": "string",
          "name": "_gameTitle",
          "type": "string"
        },
        {
          "internalType": "string",
          "name": "_description",
          "type": "string"
        },
        {
          "internalType": "string",
          "name": "_imgUrl",
          "type": "string"
        },
        {
          "internalType": "uint256",
          "name": "_goal",
          "type": "uint256"
        },
        {
          "internalType": "uint256",
          "name": "_campaignDuration",
          "type": "uint256"
        },
        {
          "internalType": "address",
          "name": "_owner",
          "type": "address"
        }
      ],
      "payable": false,
      "stateMutability": "nonpayable",
      "type": "constructor"
    },
    {
      "anonymous": false,
      "inputs": [
        {
          "indexed": true,
          "internalType": "address",
          "name": "previousOwner",
          "type": "address"
        },
        {
          "indexed": true,
          "internalType": "address",
          "name": "newOwner",
          "type": "address"
        }
      ],
      "name": "OwnershipTransferred",
      "type": "event"
    },
    {
      "constant": true,
      "inputs": [],
      "name": "NOW",
      "outputs": [
        {
          "internalType": "uint256",
          "name": "",
          "type": "uint256"
        }
      ],
      "payable": false,
      "stateMutability": "view",
      "type": "function"
    },
    {
      "constant": true,
      "inputs": [],
      "name": "description",
      "outputs": [
        {
          "internalType": "string",
          "name": "",
          "type": "string"
        }
      ],
      "payable": false,
      "stateMutability": "view",
      "type": "function"
    },
    {
      "constant": true,
      "inputs": [],
      "name": "endTime",
      "outputs": [
        {
          "internalType": "uint256",
          "name": "",
          "type": "uint256"
        }
      ],
      "payable": false,
      "stateMutability": "view",
      "type": "function"
    },
    {
      "constant": true,
      "inputs": [],
      "name": "gameTitle",
      "outputs": [
        {
          "internalType": "string",
          "name": "",
          "type": "string"
        }
      ],
      "payable": false,
      "stateMutability": "view",
      "type": "function"
    },
    {
      "constant": true,
      "inputs": [],
      "name": "goal",
      "outputs": [
        {
          "internalType": "uint256",
          "name": "",
          "type": "uint256"
        }
      ],
      "payable": false,
      "stateMutability": "view",
      "type": "function"
    },
    {
      "constant": true,
      "inputs": [],
      "name": "imgUrl",
      "outputs": [
        {
          "internalType": "string",
          "name": "",
          "type": "string"
        }
      ],
      "payable": false,
      "stateMutability": "view",
      "type": "function"
    },
    {
      "constant": true,
      "inputs": [],
      "name": "isOwner",
      "outputs": [
        {
          "internalType": "bool",
          "name": "",
          "type": "bool"
        }
      ],
      "payable": false,
      "stateMutability": "view",
      "type": "function"
    },
    {
      "constant": true,
      "inputs": [],
      "name": "owner",
      "outputs": [
        {
          "internalType": "address",
          "name": "",
          "type": "address"
        }
      ],
      "payable": false,
      "stateMutability": "view",
      "type": "function"
    },
    {
      "constant": false,
      "inputs": [],
      "name": "renounceOwnership",
      "outputs": [],
      "payable": false,
      "stateMutability": "nonpayable",
      "type": "function"
    },
    {
      "constant": true,
      "inputs": [],
      "name": "totalFunds",
      "outputs": [
        {
          "internalType": "uint256",
          "name": "",
          "type": "uint256"
        }
      ],
      "payable": false,
      "stateMutability": "view",
      "type": "function"
    },
    {
      "constant": false,
      "inputs": [
        {
          "internalType": "address",
          "name": "newOwner",
          "type": "address"
        }
      ],
      "name": "transferOwnership",
      "outputs": [],
      "payable": false,
      "stateMutability": "nonpayable",
      "type": "function"
    },
    {
      "constant": false,
      "inputs": [],
      "name": "setNow",
      "outputs": [],
      "payable": false,
      "stateMutability": "nonpayable",
      "type": "function"
    },
    {
      "constant": false,
      "inputs": [],
      "name": "fund",
      "outputs": [],
      "payable": true,
      "stateMutability": "payable",
      "type": "function"
    },
    {
      "constant": false,
      "inputs": [],
      "name": "refund",
      "outputs": [],
      "payable": false,
      "stateMutability": "nonpayable",
      "type": "function"
    },
    {
      "constant": false,
      "inputs": [],
      "name": "withdraw",
      "outputs": [],
      "payable": false,
      "stateMutability": "nonpayable",
      "type": "function"
    }
  ],
  "bytecode": "0x60806040526040518060400160405280600a81526020017f67616d65207469746c65000000000000000000000000000000000000000000008152506001908051906020019062000051929190620007c5565b506040518060400160405280601c81526020017f736f6d652064657363726974696f6e20666f72207468652067616d6500000000815250600290805190602001906200009f929190620007c5565b506040518060200160405280600081525060039080519060200190620000c7929190620007c5565b5060006006556002600760006101000a81548160ff02191690836002811115620000ed57fe5b0217905550348015620000ff57600080fd5b5060405162001c5738038062001c57833981810160405260c08110156200012557600080fd5b81019080805160405193929190846401000000008211156200014657600080fd5b838201915060208201858111156200015d57600080fd5b82518660018202830111640100000000821117156200017b57600080fd5b8083526020830192505050908051906020019080838360005b83811015620001b157808201518184015260208101905062000194565b50505050905090810190601f168015620001df5780820380516001836020036101000a031916815260200191505b50604052602001805160405193929190846401000000008211156200020357600080fd5b838201915060208201858111156200021a57600080fd5b82518660018202830111640100000000821117156200023857600080fd5b8083526020830192505050908051906020019080838360005b838110156200026e57808201518184015260208101905062000251565b50505050905090810190601f1680156200029c5780820380516001836020036101000a031916815260200191505b5060405260200180516040519392919084640100000000821115620002c057600080fd5b83820191506020820185811115620002d757600080fd5b8251866001820283011164010000000082111715620002f557600080fd5b8083526020830192505050908051906020019080838360005b838110156200032b5780820151818401526020810190506200030e565b50505050905090810190601f168015620003595780820380516001836020036101000a031916815260200191505b50604052602001805190602001909291908051906020019092919080519060200190929190505050620003916200057a60201b60201c565b6000806101000a81548173ffffffffffffffffffffffffffffffffffffffff021916908373ffffffffffffffffffffffffffffffffffffffff1602179055506000809054906101000a900473ffffffffffffffffffffffffffffffffffffffff1673ffffffffffffffffffffffffffffffffffffffff16600073ffffffffffffffffffffffffffffffffffffffff167f8be0079c531659141344cd1fd0a4f28419497f9722a3daafe3b4186f6b6457e060405160405180910390a360008211620004a7576040517f08c379a000000000000000000000000000000000000000000000000000000000815260040180806020018281038252602e81526020018062001c29602e913960400191505060405180910390fd5b6000831162000502576040517f08c379a000000000000000000000000000000000000000000000000000000000815260040180806020018281038252602d81526020018062001bfc602d913960400191505060405180910390fd5b62000513816200058260201b60201c565b85600190805190602001906200052b929190620007c5565b50846002908051906020019062000544929190620007c5565b5083600390805190602001906200055d929190620007c5565b508260048190555081420160058190555050505050505062000874565b600033905090565b620005926200061960201b60201c565b62000605576040517f08c379a00000000000000000000000000000000000000000000000000000000081526004018080602001828103825260208152602001807f4f776e61626c653a2063616c6c6572206973206e6f7420746865206f776e657281525060200191505060405180910390fd5b62000616816200067f60201b60201c565b50565b60008060009054906101000a900473ffffffffffffffffffffffffffffffffffffffff1673ffffffffffffffffffffffffffffffffffffffff16620006636200057a60201b60201c565b73ffffffffffffffffffffffffffffffffffffffff1614905090565b600073ffffffffffffffffffffffffffffffffffffffff168173ffffffffffffffffffffffffffffffffffffffff16141562000707576040517f08c379a000000000000000000000000000000000000000000000000000000000815260040180806020018281038252602681526020018062001bd66026913960400191505060405180910390fd5b8073ffffffffffffffffffffffffffffffffffffffff166000809054906101000a900473ffffffffffffffffffffffffffffffffffffffff1673ffffffffffffffffffffffffffffffffffffffff167f8be0079c531659141344cd1fd0a4f28419497f9722a3daafe3b4186f6b6457e060405160405180910390a3806000806101000a81548173ffffffffffffffffffffffffffffffffffffffff021916908373ffffffffffffffffffffffffffffffffffffffff16021790555050565b828054600181600116156101000203166002900490600052602060002090601f016020900481019282601f106200080857805160ff191683800117855562000839565b8280016001018555821562000839579182015b82811115620008385782518255916020019190600101906200081b565b5b5090506200084891906200084c565b5090565b6200087191905b808211156200086d57600081600090555060010162000853565b5090565b90565b61135280620008846000396000f3fe6080604052600436106100e85760003560e01c80638da5cb5b1161008a578063b60d428811610059578063b60d428814610384578063d68387c71461038e578063e6d1da051461041e578063f2fde38b14610435576100e8565b80638da5cb5b146102435780638f32d59b1461029a578063968ed600146102c9578063b2033ce7146102f4576100e8565b8063590e1ae3116100c6578063590e1ae31461015a578063715018a6146101715780637284e416146101885780637f16737114610218576100e8565b80633197cbb6146100ed5780633ccfd60b14610118578063401938831461012f575b600080fd5b3480156100f957600080fd5b50610102610486565b6040518082815260200191505060405180910390f35b34801561012457600080fd5b5061012d61048c565b005b34801561013b57600080fd5b5061014461070e565b6040518082815260200191505060405180910390f35b34801561016657600080fd5b5061016f610714565b005b34801561017d57600080fd5b50610186610a27565b005b34801561019457600080fd5b5061019d610b60565b6040518080602001828103825283818151815260200191508051906020019080838360005b838110156101dd5780820151818401526020810190506101c2565b50505050905090810190601f16801561020a5780820380516001836020036101000a031916815260200191505b509250505060405180910390f35b34801561022457600080fd5b5061022d610bfe565b6040518082815260200191505060405180910390f35b34801561024f57600080fd5b50610258610c04565b604051808273ffffffffffffffffffffffffffffffffffffffff1673ffffffffffffffffffffffffffffffffffffffff16815260200191505060405180910390f35b3480156102a657600080fd5b506102af610c2d565b604051808215151515815260200191505060405180910390f35b3480156102d557600080fd5b506102de610c8b565b6040518082815260200191505060405180910390f35b34801561030057600080fd5b50610309610c91565b6040518080602001828103825283818151815260200191508051906020019080838360005b8381101561034957808201518184015260208101905061032e565b50505050905090810190601f1680156103765780820380516001836020036101000a031916815260200191505b509250505060405180910390f35b61038c610d2f565b005b34801561039a57600080fd5b506103a3610fc6565b6040518080602001828103825283818151815260200191508051906020019080838360005b838110156103e35780820151818401526020810190506103c8565b50505050905090810190601f1680156104105780820380516001836020036101000a031916815260200191505b509250505060405180910390f35b34801561042a57600080fd5b50610433611064565b005b34801561044157600080fd5b506104846004803603602081101561045857600080fd5b81019080803573ffffffffffffffffffffffffffffffffffffffff16906020019092919050505061106d565b005b60055481565b610494610c2d565b610506576040517f08c379a00000000000000000000000000000000000000000000000000000000081526004018080602001828103825260208152602001807f4f776e61626c653a2063616c6c6572206973206e6f7420746865206f776e657281525060200191505060405180910390fd5b60006040518060400160405280601881526020017f43616d706169676e206469646e742073756363657373656400000000000000008152506105466110f3565b81600281111561055257fe5b600760009054906101000a900460ff16600281111561056d57fe5b148190610615576040517f08c379a00000000000000000000000000000000000000000000000000000000081526004018080602001828103825283818151815260200191508051906020019080838360005b838110156105da5780820151818401526020810190506105bf565b50505050905090810190601f1680156106075780820380516001836020036101000a031916815260200191505b509250505060405180910390fd5b5060003373ffffffffffffffffffffffffffffffffffffffff163073ffffffffffffffffffffffffffffffffffffffff163160405180600001905060006040518083038185875af1925050503d806000811461068d576040519150601f19603f3d011682016040523d82523d6000602084013e610692565b606091505b5050905080610709576040517f08c379a000000000000000000000000000000000000000000000000000000000815260040180806020018281038252600f8152602001807f7472616e73666572206661696c6564000000000000000000000000000000000081525060200191505060405180910390fd5b505050565b60045481565b60016040518060400160405280601381526020017f43616d706169676e206469646e74206661696c000000000000000000000000008152506107546110f3565b81600281111561076057fe5b600760009054906101000a900460ff16600281111561077b57fe5b148190610823576040517f08c379a00000000000000000000000000000000000000000000000000000000081526004018080602001828103825283818151815260200191508051906020019080838360005b838110156107e85780820151818401526020810190506107cd565b50505050905090810190601f1680156108155780820380516001836020036101000a031916815260200191505b509250505060405180910390fd5b506000600860003373ffffffffffffffffffffffffffffffffffffffff1673ffffffffffffffffffffffffffffffffffffffff16815260200190815260200160002054116108bc576040517f08c379a00000000000000000000000000000000000000000000000000000000081526004018080602001828103825260228152602001806112fc6022913960400191505060405180910390fd5b6000600860003373ffffffffffffffffffffffffffffffffffffffff1673ffffffffffffffffffffffffffffffffffffffff1681526020019081526020016000205490506000600860003373ffffffffffffffffffffffffffffffffffffffff1673ffffffffffffffffffffffffffffffffffffffff1681526020019081526020016000208190555060003373ffffffffffffffffffffffffffffffffffffffff168260405180600001905060006040518083038185875af1925050503d80600081146109a5576040519150601f19603f3d011682016040523d82523d6000602084013e6109aa565b606091505b5050905080610a21576040517f08c379a000000000000000000000000000000000000000000000000000000000815260040180806020018281038252600f8152602001807f7472616e73666572206661696c6564000000000000000000000000000000000081525060200191505060405180910390fd5b50505050565b610a2f610c2d565b610aa1576040517f08c379a00000000000000000000000000000000000000000000000000000000081526004018080602001828103825260208152602001807f4f776e61626c653a2063616c6c6572206973206e6f7420746865206f776e657281525060200191505060405180910390fd5b600073ffffffffffffffffffffffffffffffffffffffff166000809054906101000a900473ffffffffffffffffffffffffffffffffffffffff1673ffffffffffffffffffffffffffffffffffffffff167f8be0079c531659141344cd1fd0a4f28419497f9722a3daafe3b4186f6b6457e060405160405180910390a360008060006101000a81548173ffffffffffffffffffffffffffffffffffffffff021916908373ffffffffffffffffffffffffffffffffffffffff160217905550565b60028054600181600116156101000203166002900480601f016020809104026020016040519081016040528092919081815260200182805460018160011615610100020316600290048015610bf65780601f10610bcb57610100808354040283529160200191610bf6565b820191906000526020600020905b815481529060010190602001808311610bd957829003601f168201915b505050505081565b60095481565b60008060009054906101000a900473ffffffffffffffffffffffffffffffffffffffff16905090565b60008060009054906101000a900473ffffffffffffffffffffffffffffffffffffffff1673ffffffffffffffffffffffffffffffffffffffff16610c6f611189565b73ffffffffffffffffffffffffffffffffffffffff1614905090565b60065481565b60018054600181600116156101000203166002900480601f016020809104026020016040519081016040528092919081815260200182805460018160011615610100020316600290048015610d275780601f10610cfc57610100808354040283529160200191610d27565b820191906000526020600020905b815481529060010190602001808311610d0a57829003601f168201915b505050505081565b60016040518060400160405280600f81526020017f43616d706169676e204661696c65640000000000000000000000000000000000815250610d6f6110f3565b816002811115610d7b57fe5b600760009054906101000a900460ff166002811115610d9657fe5b14158190610e3f576040517f08c379a00000000000000000000000000000000000000000000000000000000081526004018080602001828103825283818151815260200191508051906020019080838360005b83811015610e04578082015181840152602081019050610de9565b50505050905090810190601f168015610e315780820380516001836020036101000a031916815260200191505b509250505060405180910390fd5b506658d15e176280003411610ebc576040517f08c379a00000000000000000000000000000000000000000000000000000000081526004018080602001828103825260188152602001807f546865206d696e696d756d2066756e647320617265203124000000000000000081525060200191505060405180910390fd5b610ec4610c04565b73ffffffffffffffffffffffffffffffffffffffff163373ffffffffffffffffffffffffffffffffffffffff161415610f65576040517f08c379a00000000000000000000000000000000000000000000000000000000081526004018080602001828103825260208152602001807f4f776e65722063616e742066756e6420686973206f776e2063616d706169676e81525060200191505060405180910390fd5b34600860003373ffffffffffffffffffffffffffffffffffffffff1673ffffffffffffffffffffffffffffffffffffffff16815260200190815260200160002060008282540192505081905550346006600082825401925050819055505050565b60038054600181600116156101000203166002900480601f01602080910402602001604051908101604052809291908181526020018280546001816001161561010002031660029004801561105c5780601f106110315761010080835404028352916020019161105c565b820191906000526020600020905b81548152906001019060200180831161103f57829003601f168201915b505050505081565b42600981905550565b611075610c2d565b6110e7576040517f08c379a00000000000000000000000000000000000000000000000000000000081526004018080602001828103825260208152602001807f4f776e61626c653a2063616c6c6572206973206e6f7420746865206f776e657281525060200191505060405180910390fd5b6110f081611191565b50565b6002808111156110ff57fe5b600760009054906101000a900460ff16600281111561111a57fe5b148015611128575060055442115b156111875760045460065410611161576000600760006101000a81548160ff0219169083600281111561115757fe5b0217905550611186565b6001600760006101000a81548160ff0219169083600281111561118057fe5b02179055505b5b565b600033905090565b600073ffffffffffffffffffffffffffffffffffffffff168173ffffffffffffffffffffffffffffffffffffffff161415611217576040517f08c379a00000000000000000000000000000000000000000000000000000000081526004018080602001828103825260268152602001806112d66026913960400191505060405180910390fd5b8073ffffffffffffffffffffffffffffffffffffffff166000809054906101000a900473ffffffffffffffffffffffffffffffffffffffff1673ffffffffffffffffffffffffffffffffffffffff167f8be0079c531659141344cd1fd0a4f28419497f9722a3daafe3b4186f6b6457e060405160405180910390a3806000806101000a81548173ffffffffffffffffffffffffffffffffffffffff021916908373ffffffffffffffffffffffffffffffffffffffff1602179055505056fe4f776e61626c653a206e6577206f776e657220697320746865207a65726f20616464726573735468657265206973206e6f2066756e647320666f7220746869732061646472657373a265627a7a72315820e3080db1f3426e0e30048d731d13838fe4438d919b83cac84e2dcdd1dd4b55d064736f6c634300050c00324f776e61626c653a206e6577206f776e657220697320746865207a65726f20616464726573737468652063616d706169676e20676f616c2068617320746f2062652067726561746572207468616e207a65726f7468652063616d706169676e206475726174696f6e2068617320746f2062652067726561746572207468616e2030",
  "source": "pragma solidity >=0.5.0 <0.7.0;\r\n\r\nimport \"@openzeppelin/contracts/ownership/Ownable.sol\";\r\n\r\ncontract Campaign is Ownable {\r\n    enum State {Successeded, Failed, Running}\r\n\r\n    // Game's info:\r\n    string public gameTitle = \"game title\";\r\n    string public description = \"some descrition for the game\";\r\n    string public imgUrl = \"\";\r\n\r\n    uint256 public goal;\r\n    uint256 public endTime;\r\n    uint256 public totalFunds = 0;\r\n    State state = State.Running;\r\n    mapping(address => uint256) funds;\r\n    uint256 public NOW;\r\n\r\n    function setNow() public {\r\n        NOW = now;\r\n    }\r\n\r\n    function checkState() private {\r\n        //if campaign ended & the state hasnt been set yet , set the new state\r\n        if (state == State.Running && now > endTime) {\r\n            if (totalFunds >= goal) state = State.Successeded;\r\n            else state = State.Failed;\r\n        }\r\n    }\r\n\r\n    modifier inState(State _state, string memory _msg) {\r\n        checkState();\r\n        require(state == _state, _msg);\r\n        _;\r\n    }\r\n\r\n    modifier notInState(State _state, string memory _msg) {\r\n        checkState();\r\n        require(state != _state, _msg);\r\n        _;\r\n    }\r\n\r\n    constructor(\r\n        string memory _gameTitle,\r\n        string memory _description,\r\n        string memory _imgUrl,\r\n        uint256 _goal,\r\n        uint256 _campaignDuration,\r\n        address _owner\r\n    ) public {\r\n        require(\r\n            _campaignDuration > 0,\r\n            \"the campaign duration has to be greater than 0\"\r\n        );\r\n        require(_goal > 0, \"the campaign goal has to be greater than zero\");\r\n        transferOwnership(_owner);\r\n        gameTitle = _gameTitle;\r\n        description = _description;\r\n        imgUrl = _imgUrl;\r\n        goal = _goal;\r\n        endTime = now + _campaignDuration;\r\n    }\r\n\r\n    function fund()\r\n        external\r\n        payable\r\n        notInState(State.Failed, \"Campaign Failed\")\r\n    {\r\n        require(msg.value > 250 * (10**14), \"The minimum funds are 1$\");\r\n        require((msg.sender) != owner(), \"Owner cant fund his own campaign\");\r\n        funds[msg.sender] += msg.value;\r\n        totalFunds += msg.value;\r\n    }\r\n\r\n    function refund() external inState(State.Failed, \"Campaign didnt fail\") {\r\n        require(funds[msg.sender] > 0, \"There is no funds for this address\");\r\n        uint256 amount = funds[msg.sender];\r\n        funds[msg.sender] = 0;\r\n        (bool success, ) = msg.sender.call.value(amount)(\"\");\r\n        require(success, \"transfer failed\");\r\n    }\r\n\r\n    //Owner of campaign calls this func to take the money from the contract if the campaign successed\r\n    function withdraw()\r\n        external\r\n        onlyOwner\r\n        inState(State.Successeded, \"Campaign didnt successed\")\r\n    {\r\n        (bool success, ) = msg.sender.call.value(address(this).balance)(\"\");\r\n        require(success, \"transfer failed\");\r\n    }\r\n\r\n}\r\n",
  "sourcePath": "D:\\tutorials\\Html_Css\\My_Websites\\Blockchain Projects\\kickstarter-dapp\\contracts\\Campaign.sol",
  "compiler": {
    "name": "solc",
    "version": "0.5.12+commit.7709ece9.Emscripten.clang"
  },
  "schemaVersion": "3.0.20",
  "updatedAt": "2020-01-25T14:34:46.719Z",
  "devdoc": {
    "methods": {
      "isOwner()": {
        "details": "Returns true if the caller is the current owner."
      },
      "owner()": {
        "details": "Returns the address of the current owner."
      },
      "renounceOwnership()": {
        "details": "Leaves the contract without owner. It will not be possible to call `onlyOwner` functions anymore. Can only be called by the current owner.     * NOTE: Renouncing ownership will leave the contract without an owner, thereby removing any functionality that is only available to the owner."
      },
      "transferOwnership(address)": {
        "details": "Transfers ownership of the contract to a new account (`newOwner`). Can only be called by the current owner."
      }
    }
  },
  "userdoc": {
    "methods": {}
  }
}