{
  "contractName": "CampaignFactory",
  "abi": [
    {
      "anonymous": false,
      "inputs": [
        {
          "indexed": true,
          "internalType": "address",
          "name": "previousOwner",
          "type": "address"
        },
        {
          "indexed": true,
          "internalType": "address",
          "name": "newOwner",
          "type": "address"
        }
      ],
      "name": "OwnershipTransferred",
      "type": "event"
    },
    {
      "constant": true,
      "inputs": [
        {
          "internalType": "uint256",
          "name": "",
          "type": "uint256"
        }
      ],
      "name": "campaignAddresses",
      "outputs": [
        {
          "internalType": "address",
          "name": "",
          "type": "address"
        }
      ],
      "payable": false,
      "stateMutability": "view",
      "type": "function"
    },
    {
      "constant": true,
      "inputs": [],
      "name": "campaignPrice",
      "outputs": [
        {
          "internalType": "uint256",
          "name": "",
          "type": "uint256"
        }
      ],
      "payable": false,
      "stateMutability": "view",
      "type": "function"
    },
    {
      "constant": true,
      "inputs": [],
      "name": "campaignsCount",
      "outputs": [
        {
          "internalType": "uint256",
          "name": "",
          "type": "uint256"
        }
      ],
      "payable": false,
      "stateMutability": "view",
      "type": "function"
    },
    {
      "constant": true,
      "inputs": [],
      "name": "isOwner",
      "outputs": [
        {
          "internalType": "bool",
          "name": "",
          "type": "bool"
        }
      ],
      "payable": false,
      "stateMutability": "view",
      "type": "function"
    },
    {
      "constant": true,
      "inputs": [],
      "name": "owner",
      "outputs": [
        {
          "internalType": "address",
          "name": "",
          "type": "address"
        }
      ],
      "payable": false,
      "stateMutability": "view",
      "type": "function"
    },
    {
      "constant": false,
      "inputs": [],
      "name": "renounceOwnership",
      "outputs": [],
      "payable": false,
      "stateMutability": "nonpayable",
      "type": "function"
    },
    {
      "constant": false,
      "inputs": [
        {
          "internalType": "address",
          "name": "newOwner",
          "type": "address"
        }
      ],
      "name": "transferOwnership",
      "outputs": [],
      "payable": false,
      "stateMutability": "nonpayable",
      "type": "function"
    },
    {
      "constant": false,
      "inputs": [
        {
          "internalType": "string",
          "name": "_title",
          "type": "string"
        },
        {
          "internalType": "string",
          "name": "_description",
          "type": "string"
        },
        {
          "internalType": "string",
          "name": "_imgUrl",
          "type": "string"
        },
        {
          "internalType": "uint256",
          "name": "_goal",
          "type": "uint256"
        },
        {
          "internalType": "uint256",
          "name": "_campaignDuration",
          "type": "uint256"
        }
      ],
      "name": "newCampaign",
      "outputs": [],
      "payable": true,
      "stateMutability": "payable",
      "type": "function"
    }
  ],
  "bytecode": "0x60806040526706f05b59d3b2000060015560006003556100236100e360201b60201c565b6000806101000a81548173ffffffffffffffffffffffffffffffffffffffff021916908373ffffffffffffffffffffffffffffffffffffffff1602179055506000809054906101000a900473ffffffffffffffffffffffffffffffffffffffff1673ffffffffffffffffffffffffffffffffffffffff16600073ffffffffffffffffffffffffffffffffffffffff167f8be0079c531659141344cd1fd0a4f28419497f9722a3daafe3b4186f6b6457e060405160405180910390a36100eb565b600033905090565b612718806100fa6000396000f3fe608060405260043610620000865760003560e01c8063715018a61162000055578063715018a614620002a95780638da5cb5b14620002c35780638f32d59b146200031d578063f2fde38b146200034f5762000086565b80631b422e5f146200008b5780631d02d228146200010a57806344c89b65146200024d578063528fd978146200027b575b600080fd5b3480156200009857600080fd5b50620000c860048036036020811015620000b157600080fd5b8101908080359060200190929190505050620003a4565b604051808273ffffffffffffffffffffffffffffffffffffffff1673ffffffffffffffffffffffffffffffffffffffff16815260200191505060405180910390f35b6200024b600480360360a08110156200012257600080fd5b81019080803590602001906401000000008111156200014057600080fd5b8201836020820111156200015357600080fd5b803590602001918460018302840111640100000000831117156200017657600080fd5b9091929391929390803590602001906401000000008111156200019857600080fd5b820183602082011115620001ab57600080fd5b80359060200191846001830284011164010000000083111715620001ce57600080fd5b909192939192939080359060200190640100000000811115620001f057600080fd5b8201836020820111156200020357600080fd5b803590602001918460018302840111640100000000831117156200022657600080fd5b90919293919293908035906020019092919080359060200190929190505050620003e1565b005b3480156200025a57600080fd5b5062000265620005d4565b6040518082815260200191505060405180910390f35b3480156200028857600080fd5b5062000293620005da565b6040518082815260200191505060405180910390f35b348015620002b657600080fd5b50620002c1620005e0565b005b348015620002d057600080fd5b50620002db6200071c565b604051808273ffffffffffffffffffffffffffffffffffffffff1673ffffffffffffffffffffffffffffffffffffffff16815260200191505060405180910390f35b3480156200032a57600080fd5b506200033562000745565b604051808215151515815260200191505060405180910390f35b3480156200035c57600080fd5b50620003a2600480360360208110156200037557600080fd5b81019080803573ffffffffffffffffffffffffffffffffffffffff169060200190929190505050620007a5565b005b60028181548110620003b257fe5b906000526020600020016000915054906101000a900473ffffffffffffffffffffffffffffffffffffffff1681565b6001543410156200043e576040517f08c379a0000000000000000000000000000000000000000000000000000000008152600401808060200182810382526027815260200180620026976027913960400191505060405180910390fd5b600088888888888888883360405162000457906200097e565b808060200180602001806020018781526020018681526020018573ffffffffffffffffffffffffffffffffffffffff1673ffffffffffffffffffffffffffffffffffffffff16815260200184810384528d8d82818152602001925080828437600081840152601f19601f82011690508083019250505084810383528b8b82818152602001925080828437600081840152601f19601f8201169050808301925050508481038252898982818152602001925080828437600081840152601f19601f8201169050808301925050509c50505050505050505050505050604051809103906000f0801580156200054e573d6000803e3d6000fd5b50905060028190806001815401808255809150509060018203906000526020600020016000909192909190916101000a81548173ffffffffffffffffffffffffffffffffffffffff021916908373ffffffffffffffffffffffffffffffffffffffff16021790555050600360008154809291906001019190505550505050505050505050565b60035481565b60015481565b620005ea62000745565b6200065d576040517f08c379a00000000000000000000000000000000000000000000000000000000081526004018080602001828103825260208152602001807f4f776e61626c653a2063616c6c6572206973206e6f7420746865206f776e657281525060200191505060405180910390fd5b600073ffffffffffffffffffffffffffffffffffffffff166000809054906101000a900473ffffffffffffffffffffffffffffffffffffffff1673ffffffffffffffffffffffffffffffffffffffff167f8be0079c531659141344cd1fd0a4f28419497f9722a3daafe3b4186f6b6457e060405160405180910390a360008060006101000a81548173ffffffffffffffffffffffffffffffffffffffff021916908373ffffffffffffffffffffffffffffffffffffffff160217905550565b60008060009054906101000a900473ffffffffffffffffffffffffffffffffffffffff16905090565b60008060009054906101000a900473ffffffffffffffffffffffffffffffffffffffff1673ffffffffffffffffffffffffffffffffffffffff166200078962000830565b73ffffffffffffffffffffffffffffffffffffffff1614905090565b620007af62000745565b62000822576040517f08c379a00000000000000000000000000000000000000000000000000000000081526004018080602001828103825260208152602001807f4f776e61626c653a2063616c6c6572206973206e6f7420746865206f776e657281525060200191505060405180910390fd5b6200082d8162000838565b50565b600033905090565b600073ffffffffffffffffffffffffffffffffffffffff168173ffffffffffffffffffffffffffffffffffffffff161415620008c0576040517f08c379a0000000000000000000000000000000000000000000000000000000008152600401808060200182810382526026815260200180620026be6026913960400191505060405180910390fd5b8073ffffffffffffffffffffffffffffffffffffffff166000809054906101000a900473ffffffffffffffffffffffffffffffffffffffff1673ffffffffffffffffffffffffffffffffffffffff167f8be0079c531659141344cd1fd0a4f28419497f9722a3daafe3b4186f6b6457e060405160405180910390a3806000806101000a81548173ffffffffffffffffffffffffffffffffffffffff021916908373ffffffffffffffffffffffffffffffffffffffff16021790555050565b611d0a806200098d8339019056fe60806040526040518060400160405280600a81526020017f67616d65207469746c65000000000000000000000000000000000000000000008152506001908051906020019062000051929190620007ed565b506040518060400160405280601c81526020017f736f6d652064657363726974696f6e20666f72207468652067616d6500000000815250600290805190602001906200009f929190620007ed565b506040518060200160405280600081525060039080519060200190620000c7929190620007ed565b5060006006556002600760006101000a81548160ff02191690836002811115620000ed57fe5b0217905550348015620000ff57600080fd5b5060405162001d0a38038062001d0a833981810160405260c08110156200012557600080fd5b81019080805160405193929190846401000000008211156200014657600080fd5b838201915060208201858111156200015d57600080fd5b82518660018202830111640100000000821117156200017b57600080fd5b8083526020830192505050908051906020019080838360005b83811015620001b157808201518184015260208101905062000194565b50505050905090810190601f168015620001df5780820380516001836020036101000a031916815260200191505b50604052602001805160405193929190846401000000008211156200020357600080fd5b838201915060208201858111156200021a57600080fd5b82518660018202830111640100000000821117156200023857600080fd5b8083526020830192505050908051906020019080838360005b838110156200026e57808201518184015260208101905062000251565b50505050905090810190601f1680156200029c5780820380516001836020036101000a031916815260200191505b5060405260200180516040519392919084640100000000821115620002c057600080fd5b83820191506020820185811115620002d757600080fd5b8251866001820283011164010000000082111715620002f557600080fd5b8083526020830192505050908051906020019080838360005b838110156200032b5780820151818401526020810190506200030e565b50505050905090810190601f168015620003595780820380516001836020036101000a031916815260200191505b5060405260200180519060200190929190805190602001909291908051906020019092919050505062000391620005a260201b60201c565b6000806101000a81548173ffffffffffffffffffffffffffffffffffffffff021916908373ffffffffffffffffffffffffffffffffffffffff1602179055506000809054906101000a900473ffffffffffffffffffffffffffffffffffffffff1673ffffffffffffffffffffffffffffffffffffffff16600073ffffffffffffffffffffffffffffffffffffffff167f8be0079c531659141344cd1fd0a4f28419497f9722a3daafe3b4186f6b6457e060405160405180910390a3600082118015620004605750621a65d08211155b620004b7576040517f08c379a000000000000000000000000000000000000000000000000000000000815260040180806020018281038252604381526020018062001cc76043913960600191505060405180910390fd5b600083118015620004d357506a084595161401484a0000008311155b6200052a576040517f08c379a000000000000000000000000000000000000000000000000000000000815260040180806020018281038252602d81526020018062001c9a602d913960400191505060405180910390fd5b6200053b81620005aa60201b60201c565b856001908051906020019062000553929190620007ed565b5084600290805190602001906200056c929190620007ed565b50836003908051906020019062000585929190620007ed565b50826004819055508142016005819055505050505050506200089c565b600033905090565b620005ba6200064160201b60201c565b6200062d576040517f08c379a00000000000000000000000000000000000000000000000000000000081526004018080602001828103825260208152602001807f4f776e61626c653a2063616c6c6572206973206e6f7420746865206f776e657281525060200191505060405180910390fd5b6200063e81620006a760201b60201c565b50565b60008060009054906101000a900473ffffffffffffffffffffffffffffffffffffffff1673ffffffffffffffffffffffffffffffffffffffff166200068b620005a260201b60201c565b73ffffffffffffffffffffffffffffffffffffffff1614905090565b600073ffffffffffffffffffffffffffffffffffffffff168173ffffffffffffffffffffffffffffffffffffffff1614156200072f576040517f08c379a000000000000000000000000000000000000000000000000000000000815260040180806020018281038252602681526020018062001c746026913960400191505060405180910390fd5b8073ffffffffffffffffffffffffffffffffffffffff166000809054906101000a900473ffffffffffffffffffffffffffffffffffffffff1673ffffffffffffffffffffffffffffffffffffffff167f8be0079c531659141344cd1fd0a4f28419497f9722a3daafe3b4186f6b6457e060405160405180910390a3806000806101000a81548173ffffffffffffffffffffffffffffffffffffffff021916908373ffffffffffffffffffffffffffffffffffffffff16021790555050565b828054600181600116156101000203166002900490600052602060002090601f016020900481019282601f106200083057805160ff191683800117855562000861565b8280016001018555821562000861579182015b828111156200086057825182559160200191906001019062000843565b5b50905062000870919062000874565b5090565b6200089991905b80821115620008955760008160009055506001016200087b565b5090565b90565b6113c880620008ac6000396000f3fe6080604052600436106100e85760003560e01c80638f32d59b1161008a578063c19d93fb11610059578063c19d93fb14610363578063d68387c71461039c578063e2ae93fb1461042c578063f2fde38b14610491576100e8565b80638f32d59b1461026f578063968ed6001461029e578063b2033ce7146102c9578063b60d428814610359576100e8565b8063590e1ae3116100c6578063590e1ae31461015a578063715018a6146101715780637284e416146101885780638da5cb5b14610218576100e8565b80633197cbb6146100ed5780633ccfd60b14610118578063401938831461012f575b600080fd5b3480156100f957600080fd5b506101026104e2565b6040518082815260200191505060405180910390f35b34801561012457600080fd5b5061012d6104e8565b005b34801561013b57600080fd5b5061014461076a565b6040518082815260200191505060405180910390f35b34801561016657600080fd5b5061016f610770565b005b34801561017d57600080fd5b50610186610a83565b005b34801561019457600080fd5b5061019d610bbc565b6040518080602001828103825283818151815260200191508051906020019080838360005b838110156101dd5780820151818401526020810190506101c2565b50505050905090810190601f16801561020a5780820380516001836020036101000a031916815260200191505b509250505060405180910390f35b34801561022457600080fd5b5061022d610c5a565b604051808273ffffffffffffffffffffffffffffffffffffffff1673ffffffffffffffffffffffffffffffffffffffff16815260200191505060405180910390f35b34801561027b57600080fd5b50610284610c83565b604051808215151515815260200191505060405180910390f35b3480156102aa57600080fd5b506102b3610ce1565b6040518082815260200191505060405180910390f35b3480156102d557600080fd5b506102de610ce7565b6040518080602001828103825283818151815260200191508051906020019080838360005b8381101561031e578082015181840152602081019050610303565b50505050905090810190601f16801561034b5780820380516001836020036101000a031916815260200191505b509250505060405180910390f35b610361610d85565b005b34801561036f57600080fd5b5061037861101c565b6040518082600281111561038857fe5b60ff16815260200191505060405180910390f35b3480156103a857600080fd5b506103b161102f565b6040518080602001828103825283818151815260200191508051906020019080838360005b838110156103f15780820151818401526020810190506103d6565b50505050905090810190601f16801561041e5780820380516001836020036101000a031916815260200191505b509250505060405180910390f35b34801561043857600080fd5b5061047b6004803603602081101561044f57600080fd5b81019080803573ffffffffffffffffffffffffffffffffffffffff1690602001909291905050506110cd565b6040518082815260200191505060405180910390f35b34801561049d57600080fd5b506104e0600480360360208110156104b457600080fd5b81019080803573ffffffffffffffffffffffffffffffffffffffff1690602001909291905050506110e5565b005b60055481565b6104f0610c83565b610562576040517f08c379a00000000000000000000000000000000000000000000000000000000081526004018080602001828103825260208152602001807f4f776e61626c653a2063616c6c6572206973206e6f7420746865206f776e657281525060200191505060405180910390fd5b60006040518060400160405280601881526020017f43616d706169676e206469646e742073756363657373656400000000000000008152506105a261116b565b8160028111156105ae57fe5b600760009054906101000a900460ff1660028111156105c957fe5b148190610671576040517f08c379a00000000000000000000000000000000000000000000000000000000081526004018080602001828103825283818151815260200191508051906020019080838360005b8381101561063657808201518184015260208101905061061b565b50505050905090810190601f1680156106635780820380516001836020036101000a031916815260200191505b509250505060405180910390fd5b5060003373ffffffffffffffffffffffffffffffffffffffff163073ffffffffffffffffffffffffffffffffffffffff163160405180600001905060006040518083038185875af1925050503d80600081146106e9576040519150601f19603f3d011682016040523d82523d6000602084013e6106ee565b606091505b5050905080610765576040517f08c379a000000000000000000000000000000000000000000000000000000000815260040180806020018281038252600f8152602001807f7472616e73666572206661696c6564000000000000000000000000000000000081525060200191505060405180910390fd5b505050565b60045481565b60016040518060400160405280601381526020017f43616d706169676e206469646e74206661696c000000000000000000000000008152506107b061116b565b8160028111156107bc57fe5b600760009054906101000a900460ff1660028111156107d757fe5b14819061087f576040517f08c379a00000000000000000000000000000000000000000000000000000000081526004018080602001828103825283818151815260200191508051906020019080838360005b83811015610844578082015181840152602081019050610829565b50505050905090810190601f1680156108715780820380516001836020036101000a031916815260200191505b509250505060405180910390fd5b506000600860003373ffffffffffffffffffffffffffffffffffffffff1673ffffffffffffffffffffffffffffffffffffffff1681526020019081526020016000205411610918576040517f08c379a00000000000000000000000000000000000000000000000000000000081526004018080602001828103825260228152602001806113726022913960400191505060405180910390fd5b6000600860003373ffffffffffffffffffffffffffffffffffffffff1673ffffffffffffffffffffffffffffffffffffffff1681526020019081526020016000205490506000600860003373ffffffffffffffffffffffffffffffffffffffff1673ffffffffffffffffffffffffffffffffffffffff1681526020019081526020016000208190555060003373ffffffffffffffffffffffffffffffffffffffff168260405180600001905060006040518083038185875af1925050503d8060008114610a01576040519150601f19603f3d011682016040523d82523d6000602084013e610a06565b606091505b5050905080610a7d576040517f08c379a000000000000000000000000000000000000000000000000000000000815260040180806020018281038252600f8152602001807f7472616e73666572206661696c6564000000000000000000000000000000000081525060200191505060405180910390fd5b50505050565b610a8b610c83565b610afd576040517f08c379a00000000000000000000000000000000000000000000000000000000081526004018080602001828103825260208152602001807f4f776e61626c653a2063616c6c6572206973206e6f7420746865206f776e657281525060200191505060405180910390fd5b600073ffffffffffffffffffffffffffffffffffffffff166000809054906101000a900473ffffffffffffffffffffffffffffffffffffffff1673ffffffffffffffffffffffffffffffffffffffff167f8be0079c531659141344cd1fd0a4f28419497f9722a3daafe3b4186f6b6457e060405160405180910390a360008060006101000a81548173ffffffffffffffffffffffffffffffffffffffff021916908373ffffffffffffffffffffffffffffffffffffffff160217905550565b60028054600181600116156101000203166002900480601f016020809104026020016040519081016040528092919081815260200182805460018160011615610100020316600290048015610c525780601f10610c2757610100808354040283529160200191610c52565b820191906000526020600020905b815481529060010190602001808311610c3557829003601f168201915b505050505081565b60008060009054906101000a900473ffffffffffffffffffffffffffffffffffffffff16905090565b60008060009054906101000a900473ffffffffffffffffffffffffffffffffffffffff1673ffffffffffffffffffffffffffffffffffffffff16610cc56111ff565b73ffffffffffffffffffffffffffffffffffffffff1614905090565b60065481565b60018054600181600116156101000203166002900480601f016020809104026020016040519081016040528092919081815260200182805460018160011615610100020316600290048015610d7d5780601f10610d5257610100808354040283529160200191610d7d565b820191906000526020600020905b815481529060010190602001808311610d6057829003601f168201915b505050505081565b60016040518060400160405280600f81526020017f43616d706169676e204661696c65640000000000000000000000000000000000815250610dc561116b565b816002811115610dd157fe5b600760009054906101000a900460ff166002811115610dec57fe5b14158190610e95576040517f08c379a00000000000000000000000000000000000000000000000000000000081526004018080602001828103825283818151815260200191508051906020019080838360005b83811015610e5a578082015181840152602081019050610e3f565b50505050905090810190601f168015610e875780820380516001836020036101000a031916815260200191505b509250505060405180910390fd5b506658d15e176280003411610f12576040517f08c379a00000000000000000000000000000000000000000000000000000000081526004018080602001828103825260188152602001807f546865206d696e696d756d2066756e647320617265203124000000000000000081525060200191505060405180910390fd5b610f1a610c5a565b73ffffffffffffffffffffffffffffffffffffffff163373ffffffffffffffffffffffffffffffffffffffff161415610fbb576040517f08c379a00000000000000000000000000000000000000000000000000000000081526004018080602001828103825260208152602001807f4f776e65722063616e742066756e6420686973206f776e2063616d706169676e81525060200191505060405180910390fd5b34600860003373ffffffffffffffffffffffffffffffffffffffff1673ffffffffffffffffffffffffffffffffffffffff16815260200190815260200160002060008282540192505081905550346006600082825401925050819055505050565b600760009054906101000a900460ff1681565b60038054600181600116156101000203166002900480601f0160208091040260200160405190810160405280929190818152602001828054600181600116156101000203166002900480156110c55780601f1061109a576101008083540402835291602001916110c5565b820191906000526020600020905b8154815290600101906020018083116110a857829003601f168201915b505050505081565b60086020528060005260406000206000915090505481565b6110ed610c83565b61115f576040517f08c379a00000000000000000000000000000000000000000000000000000000081526004018080602001828103825260208152602001807f4f776e61626c653a2063616c6c6572206973206e6f7420746865206f776e657281525060200191505060405180910390fd5b61116881611207565b50565b60028081111561117757fe5b600760009054906101000a900460ff16600281111561119257fe5b14156111fd57600454600654106111cc576000600760006101000a81548160ff021916908360028111156111c257fe5b02179055506111fc565b6005544211156111fb576001600760006101000a81548160ff021916908360028111156111f557fe5b02179055505b5b5b565b600033905090565b600073ffffffffffffffffffffffffffffffffffffffff168173ffffffffffffffffffffffffffffffffffffffff16141561128d576040517f08c379a000000000000000000000000000000000000000000000000000000000815260040180806020018281038252602681526020018061134c6026913960400191505060405180910390fd5b8073ffffffffffffffffffffffffffffffffffffffff166000809054906101000a900473ffffffffffffffffffffffffffffffffffffffff1673ffffffffffffffffffffffffffffffffffffffff167f8be0079c531659141344cd1fd0a4f28419497f9722a3daafe3b4186f6b6457e060405160405180910390a3806000806101000a81548173ffffffffffffffffffffffffffffffffffffffff021916908373ffffffffffffffffffffffffffffffffffffffff1602179055505056fe4f776e61626c653a206e6577206f776e657220697320746865207a65726f20616464726573735468657265206973206e6f2066756e647320666f7220746869732061646472657373a265627a7a72315820c2fdc7094086cc78e5e7847f2468cd0e6df4b14cd4434b25c25b98967d5c01b764736f6c634300050c00324f776e61626c653a206e6577206f776e657220697320746865207a65726f20616464726573737468652063616d706169676e20676f616c2068617320746f2062652067726561746572207468616e207a65726f7468652063616d706169676e206475726174696f6e2068617320746f2062652067726561746572207468616e203020616e64206c6573207468616e20323020646179736e6f7420656e6f7567682066756e647320746f20706f73742061206e65772063616d706169676e4f776e61626c653a206e6577206f776e657220697320746865207a65726f2061646472657373a265627a7a72315820212727e7ab765f81ccd5c72728af5a7dedb37bcfaa61de396e347d198ddcd06c64736f6c634300050c0032",
  "source": "pragma solidity >=0.5.0 <0.7.0;\r\n\r\nimport \"@openzeppelin/contracts/ownership/Ownable.sol\";\r\nimport \"./Campaign.sol\";\r\n\r\ncontract CampaignFactory is Ownable {\r\n    uint256 public campaignPrice = (1 ether) / 2;\r\n    address[] public campaignAddresses;\r\n    uint256 public campaignsCount = 0;\r\n\r\n    function newCampaign(\r\n        string calldata _title,\r\n        string calldata _description,\r\n        string calldata _imgUrl,\r\n        uint256 _goal,\r\n        uint256 _campaignDuration\r\n    ) external payable {\r\n        require(\r\n            msg.value >= campaignPrice,\r\n            \"not enough funds to post a new campaign\"\r\n        );\r\n        Campaign _newCampaign = new Campaign(\r\n            _title,\r\n            _description,\r\n            _imgUrl,\r\n            _goal,\r\n            _campaignDuration,\r\n            msg.sender\r\n        );\r\n        campaignAddresses.push(address(_newCampaign));\r\n        campaignsCount++;\r\n    }\r\n\r\n}\r\n",
  "sourcePath": "D:/tutorials/Html_Css/My_Websites/Blockchain Projects/kickstarter-dapp/contracts/CampaignFactory.sol",
  "compiler": {
    "name": "solc",
    "version": "0.5.12+commit.7709ece9.Emscripten.clang"
  },
  "schemaVersion": "3.0.20",
  "updatedAt": "2020-02-01T16:16:43.387Z",
  "networkType": "ethereum",
  "devdoc": {
    "methods": {
      "isOwner()": {
        "details": "Returns true if the caller is the current owner."
      },
      "owner()": {
        "details": "Returns the address of the current owner."
      },
      "renounceOwnership()": {
        "details": "Leaves the contract without owner. It will not be possible to call `onlyOwner` functions anymore. Can only be called by the current owner.     * NOTE: Renouncing ownership will leave the contract without an owner, thereby removing any functionality that is only available to the owner."
      },
      "transferOwnership(address)": {
        "details": "Transfers ownership of the contract to a new account (`newOwner`). Can only be called by the current owner."
      }
    }
  },
  "userdoc": {
    "methods": {}
  }
}