{
  "contractName": "Campaign",
  "abi": [
    {
      "inputs": [
        {
          "internalType": "string",
          "name": "_gameTitle",
          "type": "string"
        },
        {
          "internalType": "string",
          "name": "_description",
          "type": "string"
        },
        {
          "internalType": "string",
          "name": "_imgUrl",
          "type": "string"
        },
        {
          "internalType": "uint256",
          "name": "_goal",
          "type": "uint256"
        },
        {
          "internalType": "uint256",
          "name": "_campaignDuration",
          "type": "uint256"
        },
        {
          "internalType": "address",
          "name": "_owner",
          "type": "address"
        }
      ],
      "payable": false,
      "stateMutability": "nonpayable",
      "type": "constructor"
    },
    {
      "anonymous": false,
      "inputs": [
        {
          "indexed": true,
          "internalType": "address",
          "name": "previousOwner",
          "type": "address"
        },
        {
          "indexed": true,
          "internalType": "address",
          "name": "newOwner",
          "type": "address"
        }
      ],
      "name": "OwnershipTransferred",
      "type": "event"
    },
    {
      "constant": true,
      "inputs": [],
      "name": "description",
      "outputs": [
        {
          "internalType": "string",
          "name": "",
          "type": "string"
        }
      ],
      "payable": false,
      "stateMutability": "view",
      "type": "function"
    },
    {
      "constant": true,
      "inputs": [],
      "name": "endTime",
      "outputs": [
        {
          "internalType": "uint256",
          "name": "",
          "type": "uint256"
        }
      ],
      "payable": false,
      "stateMutability": "view",
      "type": "function"
    },
    {
      "constant": true,
      "inputs": [],
      "name": "gameTitle",
      "outputs": [
        {
          "internalType": "string",
          "name": "",
          "type": "string"
        }
      ],
      "payable": false,
      "stateMutability": "view",
      "type": "function"
    },
    {
      "constant": true,
      "inputs": [],
      "name": "goal",
      "outputs": [
        {
          "internalType": "uint256",
          "name": "",
          "type": "uint256"
        }
      ],
      "payable": false,
      "stateMutability": "view",
      "type": "function"
    },
    {
      "constant": true,
      "inputs": [],
      "name": "imgUrl",
      "outputs": [
        {
          "internalType": "string",
          "name": "",
          "type": "string"
        }
      ],
      "payable": false,
      "stateMutability": "view",
      "type": "function"
    },
    {
      "constant": true,
      "inputs": [],
      "name": "isOwner",
      "outputs": [
        {
          "internalType": "bool",
          "name": "",
          "type": "bool"
        }
      ],
      "payable": false,
      "stateMutability": "view",
      "type": "function"
    },
    {
      "constant": true,
      "inputs": [],
      "name": "owner",
      "outputs": [
        {
          "internalType": "address",
          "name": "",
          "type": "address"
        }
      ],
      "payable": false,
      "stateMutability": "view",
      "type": "function"
    },
    {
      "constant": false,
      "inputs": [],
      "name": "renounceOwnership",
      "outputs": [],
      "payable": false,
      "stateMutability": "nonpayable",
      "type": "function"
    },
    {
      "constant": true,
      "inputs": [],
      "name": "state",
      "outputs": [
        {
          "internalType": "enum Campaign.State",
          "name": "",
          "type": "uint8"
        }
      ],
      "payable": false,
      "stateMutability": "view",
      "type": "function"
    },
    {
      "constant": true,
      "inputs": [],
      "name": "totalFunds",
      "outputs": [
        {
          "internalType": "uint256",
          "name": "",
          "type": "uint256"
        }
      ],
      "payable": false,
      "stateMutability": "view",
      "type": "function"
    },
    {
      "constant": false,
      "inputs": [
        {
          "internalType": "address",
          "name": "newOwner",
          "type": "address"
        }
      ],
      "name": "transferOwnership",
      "outputs": [],
      "payable": false,
      "stateMutability": "nonpayable",
      "type": "function"
    },
    {
      "constant": false,
      "inputs": [],
      "name": "fund",
      "outputs": [],
      "payable": true,
      "stateMutability": "payable",
      "type": "function"
    },
    {
      "constant": false,
      "inputs": [],
      "name": "refund",
      "outputs": [],
      "payable": false,
      "stateMutability": "nonpayable",
      "type": "function"
    },
    {
      "constant": false,
      "inputs": [],
      "name": "withdraw",
      "outputs": [],
      "payable": false,
      "stateMutability": "nonpayable",
      "type": "function"
    }
  ],
  "bytecode": "0x60806040526040518060400160405280600a81526020017f67616d65207469746c65000000000000000000000000000000000000000000008152506001908051906020019062000051929190620007ed565b506040518060400160405280601c81526020017f736f6d652064657363726974696f6e20666f72207468652067616d6500000000815250600290805190602001906200009f929190620007ed565b506040518060200160405280600081525060039080519060200190620000c7929190620007ed565b5060006006556002600760006101000a81548160ff02191690836002811115620000ed57fe5b0217905550348015620000ff57600080fd5b5060405162001c8438038062001c84833981810160405260c08110156200012557600080fd5b81019080805160405193929190846401000000008211156200014657600080fd5b838201915060208201858111156200015d57600080fd5b82518660018202830111640100000000821117156200017b57600080fd5b8083526020830192505050908051906020019080838360005b83811015620001b157808201518184015260208101905062000194565b50505050905090810190601f168015620001df5780820380516001836020036101000a031916815260200191505b50604052602001805160405193929190846401000000008211156200020357600080fd5b838201915060208201858111156200021a57600080fd5b82518660018202830111640100000000821117156200023857600080fd5b8083526020830192505050908051906020019080838360005b838110156200026e57808201518184015260208101905062000251565b50505050905090810190601f1680156200029c5780820380516001836020036101000a031916815260200191505b5060405260200180516040519392919084640100000000821115620002c057600080fd5b83820191506020820185811115620002d757600080fd5b8251866001820283011164010000000082111715620002f557600080fd5b8083526020830192505050908051906020019080838360005b838110156200032b5780820151818401526020810190506200030e565b50505050905090810190601f168015620003595780820380516001836020036101000a031916815260200191505b5060405260200180519060200190929190805190602001909291908051906020019092919050505062000391620005a260201b60201c565b6000806101000a81548173ffffffffffffffffffffffffffffffffffffffff021916908373ffffffffffffffffffffffffffffffffffffffff1602179055506000809054906101000a900473ffffffffffffffffffffffffffffffffffffffff1673ffffffffffffffffffffffffffffffffffffffff16600073ffffffffffffffffffffffffffffffffffffffff167f8be0079c531659141344cd1fd0a4f28419497f9722a3daafe3b4186f6b6457e060405160405180910390a3600082118015620004605750621a65d08211155b620004b7576040517f08c379a000000000000000000000000000000000000000000000000000000000815260040180806020018281038252604381526020018062001c416043913960600191505060405180910390fd5b600083118015620004d357506a084595161401484a0000008311155b6200052a576040517f08c379a000000000000000000000000000000000000000000000000000000000815260040180806020018281038252602d81526020018062001c14602d913960400191505060405180910390fd5b6200053b81620005aa60201b60201c565b856001908051906020019062000553929190620007ed565b5084600290805190602001906200056c929190620007ed565b50836003908051906020019062000585929190620007ed565b50826004819055508142016005819055505050505050506200089c565b600033905090565b620005ba6200064160201b60201c565b6200062d576040517f08c379a00000000000000000000000000000000000000000000000000000000081526004018080602001828103825260208152602001807f4f776e61626c653a2063616c6c6572206973206e6f7420746865206f776e657281525060200191505060405180910390fd5b6200063e81620006a760201b60201c565b50565b60008060009054906101000a900473ffffffffffffffffffffffffffffffffffffffff1673ffffffffffffffffffffffffffffffffffffffff166200068b620005a260201b60201c565b73ffffffffffffffffffffffffffffffffffffffff1614905090565b600073ffffffffffffffffffffffffffffffffffffffff168173ffffffffffffffffffffffffffffffffffffffff1614156200072f576040517f08c379a000000000000000000000000000000000000000000000000000000000815260040180806020018281038252602681526020018062001bee6026913960400191505060405180910390fd5b8073ffffffffffffffffffffffffffffffffffffffff166000809054906101000a900473ffffffffffffffffffffffffffffffffffffffff1673ffffffffffffffffffffffffffffffffffffffff167f8be0079c531659141344cd1fd0a4f28419497f9722a3daafe3b4186f6b6457e060405160405180910390a3806000806101000a81548173ffffffffffffffffffffffffffffffffffffffff021916908373ffffffffffffffffffffffffffffffffffffffff16021790555050565b828054600181600116156101000203166002900490600052602060002090601f016020900481019282601f106200083057805160ff191683800117855562000861565b8280016001018555821562000861579182015b828111156200086057825182559160200191906001019062000843565b5b50905062000870919062000874565b5090565b6200089991905b80821115620008955760008160009055506001016200087b565b5090565b90565b61134280620008ac6000396000f3fe6080604052600436106100dd5760003560e01c80638f32d59b1161007f578063b60d428811610059578063b60d42881461034e578063c19d93fb14610358578063d68387c714610391578063f2fde38b14610421576100dd565b80638f32d59b14610264578063968ed60014610293578063b2033ce7146102be576100dd565b8063590e1ae3116100bb578063590e1ae31461014f578063715018a6146101665780637284e4161461017d5780638da5cb5b1461020d576100dd565b80633197cbb6146100e25780633ccfd60b1461010d5780634019388314610124575b600080fd5b3480156100ee57600080fd5b506100f7610472565b6040518082815260200191505060405180910390f35b34801561011957600080fd5b50610122610478565b005b34801561013057600080fd5b506101396106fa565b6040518082815260200191505060405180910390f35b34801561015b57600080fd5b50610164610700565b005b34801561017257600080fd5b5061017b610a13565b005b34801561018957600080fd5b50610192610b4c565b6040518080602001828103825283818151815260200191508051906020019080838360005b838110156101d25780820151818401526020810190506101b7565b50505050905090810190601f1680156101ff5780820380516001836020036101000a031916815260200191505b509250505060405180910390f35b34801561021957600080fd5b50610222610bea565b604051808273ffffffffffffffffffffffffffffffffffffffff1673ffffffffffffffffffffffffffffffffffffffff16815260200191505060405180910390f35b34801561027057600080fd5b50610279610c13565b604051808215151515815260200191505060405180910390f35b34801561029f57600080fd5b506102a8610c71565b6040518082815260200191505060405180910390f35b3480156102ca57600080fd5b506102d3610c77565b6040518080602001828103825283818151815260200191508051906020019080838360005b838110156103135780820151818401526020810190506102f8565b50505050905090810190601f1680156103405780820380516001836020036101000a031916815260200191505b509250505060405180910390f35b610356610d15565b005b34801561036457600080fd5b5061036d610fac565b6040518082600281111561037d57fe5b60ff16815260200191505060405180910390f35b34801561039d57600080fd5b506103a6610fbf565b6040518080602001828103825283818151815260200191508051906020019080838360005b838110156103e65780820151818401526020810190506103cb565b50505050905090810190601f1680156104135780820380516001836020036101000a031916815260200191505b509250505060405180910390f35b34801561042d57600080fd5b506104706004803603602081101561044457600080fd5b81019080803573ffffffffffffffffffffffffffffffffffffffff16906020019092919050505061105d565b005b60055481565b610480610c13565b6104f2576040517f08c379a00000000000000000000000000000000000000000000000000000000081526004018080602001828103825260208152602001807f4f776e61626c653a2063616c6c6572206973206e6f7420746865206f776e657281525060200191505060405180910390fd5b60006040518060400160405280601881526020017f43616d706169676e206469646e742073756363657373656400000000000000008152506105326110e3565b81600281111561053e57fe5b600760009054906101000a900460ff16600281111561055957fe5b148190610601576040517f08c379a00000000000000000000000000000000000000000000000000000000081526004018080602001828103825283818151815260200191508051906020019080838360005b838110156105c65780820151818401526020810190506105ab565b50505050905090810190601f1680156105f35780820380516001836020036101000a031916815260200191505b509250505060405180910390fd5b5060003373ffffffffffffffffffffffffffffffffffffffff163073ffffffffffffffffffffffffffffffffffffffff163160405180600001905060006040518083038185875af1925050503d8060008114610679576040519150601f19603f3d011682016040523d82523d6000602084013e61067e565b606091505b50509050806106f5576040517f08c379a000000000000000000000000000000000000000000000000000000000815260040180806020018281038252600f8152602001807f7472616e73666572206661696c6564000000000000000000000000000000000081525060200191505060405180910390fd5b505050565b60045481565b60016040518060400160405280601381526020017f43616d706169676e206469646e74206661696c000000000000000000000000008152506107406110e3565b81600281111561074c57fe5b600760009054906101000a900460ff16600281111561076757fe5b14819061080f576040517f08c379a00000000000000000000000000000000000000000000000000000000081526004018080602001828103825283818151815260200191508051906020019080838360005b838110156107d45780820151818401526020810190506107b9565b50505050905090810190601f1680156108015780820380516001836020036101000a031916815260200191505b509250505060405180910390fd5b506000600860003373ffffffffffffffffffffffffffffffffffffffff1673ffffffffffffffffffffffffffffffffffffffff16815260200190815260200160002054116108a8576040517f08c379a00000000000000000000000000000000000000000000000000000000081526004018080602001828103825260228152602001806112ec6022913960400191505060405180910390fd5b6000600860003373ffffffffffffffffffffffffffffffffffffffff1673ffffffffffffffffffffffffffffffffffffffff1681526020019081526020016000205490506000600860003373ffffffffffffffffffffffffffffffffffffffff1673ffffffffffffffffffffffffffffffffffffffff1681526020019081526020016000208190555060003373ffffffffffffffffffffffffffffffffffffffff168260405180600001905060006040518083038185875af1925050503d8060008114610991576040519150601f19603f3d011682016040523d82523d6000602084013e610996565b606091505b5050905080610a0d576040517f08c379a000000000000000000000000000000000000000000000000000000000815260040180806020018281038252600f8152602001807f7472616e73666572206661696c6564000000000000000000000000000000000081525060200191505060405180910390fd5b50505050565b610a1b610c13565b610a8d576040517f08c379a00000000000000000000000000000000000000000000000000000000081526004018080602001828103825260208152602001807f4f776e61626c653a2063616c6c6572206973206e6f7420746865206f776e657281525060200191505060405180910390fd5b600073ffffffffffffffffffffffffffffffffffffffff166000809054906101000a900473ffffffffffffffffffffffffffffffffffffffff1673ffffffffffffffffffffffffffffffffffffffff167f8be0079c531659141344cd1fd0a4f28419497f9722a3daafe3b4186f6b6457e060405160405180910390a360008060006101000a81548173ffffffffffffffffffffffffffffffffffffffff021916908373ffffffffffffffffffffffffffffffffffffffff160217905550565b60028054600181600116156101000203166002900480601f016020809104026020016040519081016040528092919081815260200182805460018160011615610100020316600290048015610be25780601f10610bb757610100808354040283529160200191610be2565b820191906000526020600020905b815481529060010190602001808311610bc557829003601f168201915b505050505081565b60008060009054906101000a900473ffffffffffffffffffffffffffffffffffffffff16905090565b60008060009054906101000a900473ffffffffffffffffffffffffffffffffffffffff1673ffffffffffffffffffffffffffffffffffffffff16610c55611179565b73ffffffffffffffffffffffffffffffffffffffff1614905090565b60065481565b60018054600181600116156101000203166002900480601f016020809104026020016040519081016040528092919081815260200182805460018160011615610100020316600290048015610d0d5780601f10610ce257610100808354040283529160200191610d0d565b820191906000526020600020905b815481529060010190602001808311610cf057829003601f168201915b505050505081565b60016040518060400160405280600f81526020017f43616d706169676e204661696c65640000000000000000000000000000000000815250610d556110e3565b816002811115610d6157fe5b600760009054906101000a900460ff166002811115610d7c57fe5b14158190610e25576040517f08c379a00000000000000000000000000000000000000000000000000000000081526004018080602001828103825283818151815260200191508051906020019080838360005b83811015610dea578082015181840152602081019050610dcf565b50505050905090810190601f168015610e175780820380516001836020036101000a031916815260200191505b509250505060405180910390fd5b506658d15e176280003411610ea2576040517f08c379a00000000000000000000000000000000000000000000000000000000081526004018080602001828103825260188152602001807f546865206d696e696d756d2066756e647320617265203124000000000000000081525060200191505060405180910390fd5b610eaa610bea565b73ffffffffffffffffffffffffffffffffffffffff163373ffffffffffffffffffffffffffffffffffffffff161415610f4b576040517f08c379a00000000000000000000000000000000000000000000000000000000081526004018080602001828103825260208152602001807f4f776e65722063616e742066756e6420686973206f776e2063616d706169676e81525060200191505060405180910390fd5b34600860003373ffffffffffffffffffffffffffffffffffffffff1673ffffffffffffffffffffffffffffffffffffffff16815260200190815260200160002060008282540192505081905550346006600082825401925050819055505050565b600760009054906101000a900460ff1681565b60038054600181600116156101000203166002900480601f0160208091040260200160405190810160405280929190818152602001828054600181600116156101000203166002900480156110555780601f1061102a57610100808354040283529160200191611055565b820191906000526020600020905b81548152906001019060200180831161103857829003601f168201915b505050505081565b611065610c13565b6110d7576040517f08c379a00000000000000000000000000000000000000000000000000000000081526004018080602001828103825260208152602001807f4f776e61626c653a2063616c6c6572206973206e6f7420746865206f776e657281525060200191505060405180910390fd5b6110e081611181565b50565b6002808111156110ef57fe5b600760009054906101000a900460ff16600281111561110a57fe5b148015611118575060055442115b156111775760045460065410611151576000600760006101000a81548160ff0219169083600281111561114757fe5b0217905550611176565b6001600760006101000a81548160ff0219169083600281111561117057fe5b02179055505b5b565b600033905090565b600073ffffffffffffffffffffffffffffffffffffffff168173ffffffffffffffffffffffffffffffffffffffff161415611207576040517f08c379a00000000000000000000000000000000000000000000000000000000081526004018080602001828103825260268152602001806112c66026913960400191505060405180910390fd5b8073ffffffffffffffffffffffffffffffffffffffff166000809054906101000a900473ffffffffffffffffffffffffffffffffffffffff1673ffffffffffffffffffffffffffffffffffffffff167f8be0079c531659141344cd1fd0a4f28419497f9722a3daafe3b4186f6b6457e060405160405180910390a3806000806101000a81548173ffffffffffffffffffffffffffffffffffffffff021916908373ffffffffffffffffffffffffffffffffffffffff1602179055505056fe4f776e61626c653a206e6577206f776e657220697320746865207a65726f20616464726573735468657265206973206e6f2066756e647320666f7220746869732061646472657373a265627a7a723158203e7497dd650c749b1140a5757662feb669cf32fd5093d9979455bdb7ca601e3264736f6c634300050c00324f776e61626c653a206e6577206f776e657220697320746865207a65726f20616464726573737468652063616d706169676e20676f616c2068617320746f2062652067726561746572207468616e207a65726f7468652063616d706169676e206475726174696f6e2068617320746f2062652067726561746572207468616e203020616e64206c6573207468616e2032302064617973",
  "source": "pragma solidity >=0.5.0 <0.7.0;\r\n\r\nimport \"@openzeppelin/contracts/ownership/Ownable.sol\";\r\n\r\ncontract Campaign is Ownable {\r\n    enum State {Successeded, Failed, Running}\r\n\r\n    // Game's info:\r\n    string public gameTitle = \"game title\";\r\n    string public description = \"some descrition for the game\";\r\n    string public imgUrl = \"\";\r\n\r\n    uint256 public goal;\r\n    uint256 public endTime;\r\n    uint256 public totalFunds = 0;\r\n    State public state = State.Running;\r\n    mapping(address => uint256) funds;\r\n\r\n    function checkState() private {\r\n        //if campaign ended & the state hasnt been set yet , set the new state\r\n        if (state == State.Running && now > endTime) {\r\n            if (totalFunds >= goal) state = State.Successeded;\r\n            else state = State.Failed;\r\n        }\r\n    }\r\n\r\n    modifier inState(State _state, string memory _msg) {\r\n        checkState();\r\n        require(state == _state, _msg);\r\n        _;\r\n    }\r\n\r\n    modifier notInState(State _state, string memory _msg) {\r\n        checkState();\r\n        require(state != _state, _msg);\r\n        _;\r\n    }\r\n\r\n    constructor(\r\n        string memory _gameTitle,\r\n        string memory _description,\r\n        string memory _imgUrl,\r\n        uint256 _goal,\r\n        uint256 _campaignDuration,\r\n        address _owner\r\n    ) public {\r\n        require(\r\n            _campaignDuration > 0 && _campaignDuration <= 1730000,\r\n            \"the campaign duration has to be greater than 0 and les than 20 days\"\r\n        );\r\n        require(\r\n            _goal > 0 && _goal <= 10000000 ether,\r\n            \"the campaign goal has to be greater than zero\"\r\n        );\r\n\r\n        transferOwnership(_owner);\r\n        gameTitle = _gameTitle;\r\n        description = _description;\r\n        imgUrl = _imgUrl;\r\n        goal = _goal;\r\n        endTime = now + _campaignDuration;\r\n    }\r\n\r\n    function fund()\r\n        external\r\n        payable\r\n        notInState(State.Failed, \"Campaign Failed\")\r\n    {\r\n        require(msg.value > 250 * (10**14), \"The minimum funds are 1$\");\r\n        require((msg.sender) != owner(), \"Owner cant fund his own campaign\");\r\n        funds[msg.sender] += msg.value;\r\n        totalFunds += msg.value;\r\n    }\r\n\r\n    function refund() external inState(State.Failed, \"Campaign didnt fail\") {\r\n        require(funds[msg.sender] > 0, \"There is no funds for this address\");\r\n        uint256 amount = funds[msg.sender];\r\n        funds[msg.sender] = 0;\r\n        (bool success, ) = msg.sender.call.value(amount)(\"\");\r\n        require(success, \"transfer failed\");\r\n    }\r\n\r\n    //Owner of campaign calls this func to take the money from the contract if the campaign successed\r\n    function withdraw()\r\n        external\r\n        onlyOwner\r\n        inState(State.Successeded, \"Campaign didnt successed\")\r\n    {\r\n        (bool success, ) = msg.sender.call.value(address(this).balance)(\"\");\r\n        require(success, \"transfer failed\");\r\n    }\r\n\r\n}\r\n",
  "sourcePath": "D:\\tutorials\\Html_Css\\My_Websites\\Blockchain Projects\\kickstarter-dapp\\contracts\\Campaign.sol",
  "compiler": {
    "name": "solc",
    "version": "0.5.12+commit.7709ece9.Emscripten.clang"
  },
  "schemaVersion": "3.0.20",
  "updatedAt": "2020-01-29T16:22:31.702Z",
  "devdoc": {
    "methods": {
      "isOwner()": {
        "details": "Returns true if the caller is the current owner."
      },
      "owner()": {
        "details": "Returns the address of the current owner."
      },
      "renounceOwnership()": {
        "details": "Leaves the contract without owner. It will not be possible to call `onlyOwner` functions anymore. Can only be called by the current owner.     * NOTE: Renouncing ownership will leave the contract without an owner, thereby removing any functionality that is only available to the owner."
      },
      "transferOwnership(address)": {
        "details": "Transfers ownership of the contract to a new account (`newOwner`). Can only be called by the current owner."
      }
    }
  },
  "userdoc": {
    "methods": {}
  }
}